:020000040800F2
:10000000B84E0020C902000841640008B955000834
:10001000016400087521000861BE000800000000AE
:10002000000000000000000000000000DB8200086B
:1000300061280008000000009D6F0008118400087E
:10004000E3020008E3020008E302000891770008D9
:10005000E3020008E3020008E3020008E3020008EC
:10006000E3020008E3020008E3020008E3020008DC
:10007000E3020008E3020008E3020008E3020008CC
:10008000E3020008E3020008E3020008E3020008BC
:10009000E3020008E3020008E3020008292900083F
:1000A000E3020008E3020008E3020008E30200089C
:1000B000E3020008D984000889850008E3020008EB
:1000C000E3020008E3020008E3020008E30200087C
:1000D000E3020008E3020008E5BB0008E3020008B1
:1000E000E5280008C5730008E3020008258A000817
:1000F000E3020008E3020008E3020008E30200084C
:10010000E3020008E302000805870008E302000894
:10011000E3020008E3020008E3020008C9890008BE
:10012000E3020008E3020008E3020008E30200081B
:10013000E3020008E3020008E3020008E30200080B
:10014000E3020008E3020008E3020008E3020008FB
:10015000E3020008E3020008E3020008E3020008EB
:10016000E3020008E3020008E3020008E3020008DB
:10017000E3020008E3020008E302000800000000B8
:10018000E3020008E302000800F002F800F08CF837
:100190000AA090E8000C82448344AAF10107DA45E2
:1001A00001D100F081F8AFF2090EBAE80F0013F0A8
:1001B000010F18BFFB1A43F001031847504201001A
:1001C000704201000A444FF0000C10F8013B13F09C
:1001D000070408BF10F8014B1D1108BF10F8015BA0
:1001E000641E05D010F8016B641E01F8016BF9D193
:1001F00013F0080F1EBF10F8014BAD1C0C1B09D1EA
:100200006D1E58BF01F801CBFAD505E014F8016B5B
:1002100001F8016B6D1EF9D59142D6D370470000ED
:100220000023002400250026103A28BF78C1FBD8FF
:10023000520728BF30C148BF0B607047662910F0D5
:10024000DE87692900F07E81642900F07B817529B1
:1002500000F078816F2900F00F82782900F0348255
:100260000368DB0928BF41F08001632900F015868F
:10027000732900F01A86E32900F0388600207047C1
:100280001FB510F0B2FF00F087FE0400002000212F
:1002900010F018F9401C60600020002110F0FCF8FC
:1002A000E0601FBD10B510BD00F07EFF1146FFF7E6
:1002B000E7FF0EF0DEFC00F09CFF03B4FFF7F2FF57
:1002C00003BC0DF0B0FB0000094880470948004717
:1002D000FEE7FEE7FEE7FEE7FEE7FEE7FEE7FEE7F6
:1002E000FEE7FEE704480549054A064B7047000053
:1002F0001984000889010008B8480020B84E002081
:10030000B84A0020B84A0020704753EA020C00F0B7
:1003100069802DE9F04B4FF00006002B1FBFB3FAA8
:1003200083F503FA05F424FA05F65E4012BF16437E
:10033000B2FA82F502FA05F4C5F120051EBF22FAD1
:1003400005FC44EA0C04203556EA044C4FEA1444F8
:1003500018BF641C4FF000084FF00009904271EB89
:10036000030C39D3002919BFB1FA81F701FA07F656
:10037000B0FA80F700FA07F6C7F120071EBF20FA8F
:1003800007FC46EA0C062037B6FBF4FCA7EB050792
:10039000103F07F01F0BCBF120060CFA0BFB2CFAD9
:1003A00006F644BFB3460026202FA4BF5E464FF09A
:1003B000000B5BEA060C08BF4FF0010B19EB0B09B1
:1003C000ABFB027C48EB0608C01B06FB02CC0BFB18
:1003D00003CC71EB0C01C1E70B460246414648468F
:1003E000BDE8F08B13B54FF000004FF00001AFF304
:1003F0000080BDE81C40704710B54C1084EA5304DF
:1004000004D54042C1F1000138BF491E1B4204D54A
:100410005242C3F1000338BF5B1EFFF776FF14F0B2
:10042000804F04D04042C1F1000138BF491E14F092
:10043000004F04D05242C3F1000338BF5B1E10BD11
:100440000FB4044910B503AA029800F033FD10BCA4
:100450005DF814FBE80800200FB41CB5074B06AA92
:100460007B4469460090059800F0F5FC0020694641
:1004700000F004FD1CBC5DF814FB0000190A00002C
:1004800070B5044685690068C10601D5302600E0D4
:100490002026C00707D070BDD4E90121304690471F
:1004A000206A401C20626D1EF6D570BD70B50446F2
:1004B00085690078C00707D170BDD4E901212020EB
:1004C0009047206A401C20626D1EF6D570BD0968F9
:1004D0004A0501D540B27047C905FCD500B2704746
:1004E00009684A0501D5C0B27047C905FCD580B27C
:1004F000704770B50C460546012A05D0287880065D
:1005000000D5EA69002302E0012305E05B1C934269
:1005100002D2E05C0028F9D1A869E618C01AA861E7
:10052000286A184428622846FFF7AAFF04E0D5E9A4
:10053000012114F8010B9047B442F8D32846FFF785
:10054000B5FF70BD2DE9F0410646002410687529FD
:10055000314616A510D0FFF7BAFF002802DA404254
:1005600013A507E031688A0701D512A502E0490703
:1005700004D511A5012401E0FFF7B2FF00210A22F2
:1005800006F1240709E0B0FBF2FCB0FBF2F302FB3A
:100590001C00303078541846491C0028F3D12346FB
:1005A0002A463046BDE8F04100F0E8B900000000FE
:1005B0002D0000002B000000200000002DE9FF5F4F
:1005C00015468A460446DFF8AC80F8440027D8E98F
:1005D00000103E46CDE9001010E03AF816106A46C9
:1005E00002A800F08FFC411C07D02178890603D5B2
:1005F000E269391891420DD80744761C20788006AC
:1006000002D5E069B84205DDAE42E6DB3AF81600F5
:100610000028E2D1A069C01BA0612046FFF730FF8F
:10062000D8E90010CDE90010002017E03AF81810C2
:100630006A4602A800F066FCB0F1FF3F81460BD08D
:1006400000250DF1080B05E0D4E901211BF8050098
:1006500090476D1C4D45F7D308F10100B04280462C
:10066000E4DB206A384420622046FFF71FFFBDE824
:10067000FF9F0000C23A010070B504462146106891
:10068000FFF72EFF002104F1240505E000F007022A
:100690003032C0086A54491C0028F7D12068002372
:1006A00007A2050707D5800600D421B1E069012320
:1006B00004A2401EE0612046BDE8704000F05EB933
:1006C000000000003000000070B504460D462146D1
:1006D0001068FFF705FF2188090502D50F4A7A4403
:1006E00002E00E4A7A440E32002104F1240305E0B0
:1006F00000F00F060009965D5E54491C0028F7D1F2
:1007000020780023000704D5702D02D009B1022300
:1007100011322046BDE8704000F030B9B639010012
:100720002DE9F05F894604464FF0000ADFF874B106
:10073000FB44C0F820A02046E1688847002874D018
:10074000252806D0D4E901219047206A401C206268
:10075000F1E700265F462046E168884720280546E5
:1007600007DB312D05D2781910F8200C08B10643AB
:10077000F1E7B00701D526F00406C4F81CA0002755
:10078000C4F818A02A2D09D028460DF045F938B331
:1007900004EB8708303DC8F8185019E059F8041BDD
:1007A000204604EB87029161E1688847012F0546E6
:1007B00018D1E069002820DA26F020061DE0D8F8DC
:1007C000180000EB800005EB40003038C8F8180036
:1007D0002046E168884705460DF01EF90028EED155
:1007E000012F0AD02E2D08D12046E16888477F1CB2
:1007F0000546022F46F02006C4DBA069002803DA74
:10080000404246F00106A061F00701D026F0100634
:100810006C2D0BD0682D09D04C2D39D06A2D35D0D8
:10082000742D35D07A2D33D016E038E0E1682F46AC
:1008300020468847B842054609D16C2F26D04FF490
:100840008060E168064320468847054604E06C2F37
:100850001AD04FF4807006430DB3A5F1410019285A
:1008600002D8203546F400664A46294620462660CE
:100870004E46FFF7E3FC80B101280BD0F61D26F0B1
:10088000070000F1080956E74020E4E78020D8E798
:100890000020D6E706F104094DE7284652E7206A12
:1008A000BDE8F09F8C39010040EA010310B59B07B9
:1008B0000FD1042A0DD310C808C9121F9C42F8D0CA
:1008C00020BA19BA884201D9012010BD4FF0FF307B
:1008D00010BD1AB1D30703D0521C07E0002010BD91
:1008E00010F8013B11F8014B1B1B07D110F8013B1D
:1008F00011F8014B1B1B01D1921EF1D1184610BDFE
:1009000002F0FF0343EA032242EA024200F01CBB6A
:100910004FF0000200B5134694469646203922BF98
:10092000A0E80C50A0E80C50B1F12001BFF4F7AFE3
:10093000090728BFA0E80C5048BF0CC05DF804EBC5
:10094000890028BF40F8042B08BF704748BF20F833
:10095000022B11F0804F18BF00F8012B7047704731
:1009600070477047704710B500F01AFB006810BD63
:1009700010B5044600F014FB046010BD2DE9F047EB
:100980000D4699469246044600F1240801688806FF
:1009900004D5E06921F01001216000E00120A842A7
:1009A00001DD471B00E00027A1697A1902EB09006D
:1009B000081AA0612078C00602D42046FFF760FD27
:1009C000002608E0D4E901211AF806009047206AC1
:1009D000401C761C20624E45F4DB2078C0060AD508
:1009E0002046FFF74DFD06E0D4E901213020904775
:1009F000206A401C2062381EA7F10107F4DC07E0E2
:100A0000D4E9012118F805009047206A401C2062B3
:100A1000281EA5F10105F3DC2046FFF747FD2078ED
:100A2000000602D50220BDE8F0870120FBE77047F1
:100A30002DE9FF4F0C461E464FF0FF378BB0D2E931
:100A40000001DDF860800A908A46C1F30A5505B9B5
:100A50003D46002108464FF00000BAF1000F00F4B7
:100A6000400005DA00EB80004FF4400101EA50003D
:100A70004FEA9059B9F1010F00DDB9460A9850EAE2
:100A80004A000ED044F61050A5F2FF3545432F140E
:100A9000B8F1000F1ED07542291E1EDDC9F10002FB
:100AA0001CE0B8F1010F4FF0000001D0302103E04D
:100AB000F24305E02154401CB042FBDB30460022EB
:100AC000002121540B99C1F80880C1E900200FB022
:100AD000BDE8F08FBD1B6D1CDEE74A4600DA6942B7
:100AE00006A800F0E7FA06AB93E8070003AB83E83B
:100AF000070050460A9900F0C5FB8DE80700A0F5F5
:100B000000501F3800900398002D0ADD42F21F01AB
:100B10004A460844002303A90390684600F02EFECD
:100B200009E0A0F500504A461F38002303A90390AE
:100B3000684600F038FE8DE807000004000C03D082
:100B40004FF0FF30410800E01046B8F1000F03D02D
:100B50000022009215461EE0751E05D400F024FA0E
:100B6000303262556D1EF9D5B3460122084302D0DA
:100B700000227F1C04E02078302801D100227F1E53
:100B8000002A099784D01DE0112D07DA00F00CFA35
:100B9000303262556D1C50EA0102F5D1084302D093
:100BA0000098C8B10EE00021681E05E0235C625C7D
:100BB00063542254401E491C8142F7DBAB46A81BFC
:100BC000401E0990002004F80B000B98099AC0F809
:100BD0000880C0E9002B7AE711264FF0000857E79C
:100BE0002DE9F04F88460446D21D22F0070191B04E
:100BF000D1E90001CDE90A010BF05EFA02460B983B
:100C0000C00F01D02D2007E02068810701D52B20DF
:100C100002E0202101EAC000032A099001D0072A3E
:100C200005DB03464146204600F004FA0BE120783C
:100C3000800601D5E06900E00620B8F1650F814625
:100C400006D0B8F1660F18D0B8F1670F70D131E057
:100C50000020B9F1110F009001DB112301E009F12F
:100C600001030AAA01A90CA8FFF7E2FEDDE90C7056
:100C7000002609F10105834647E001204B4600901C
:100C80004FF000470AAA01A90CA8FFF7D1FEDDE941
:100C90000DB00C995D46002610B909F101000D1840
:100CA000B9EB050003D4C0F1FF3609F10105A5EB4E
:100CB00009002BE0B9F1010F01DA4FF00109002022
:100CC000B9F1110F0090484601DD112300E0034601
:100CD0000AAA01A90CA8FFF7ABFEDDE90C704D468E
:100CE00000268346207800070AD4AB4500DA5D462B
:100CF00001A8012D04DD411911F8011C302907D08C
:100D00004F4502DA17F1040F04DA012082460FE0A2
:100D10006D1EEEE7002F02DCED1B3E4403E0781C65
:100D2000A84200DD7D1CB81B00F1010A4FF000470E
:100D30002078000703D4AA4501DB4FF0FF3A0021D9
:100D4000B7F1004F0DF143088DF8431024D0022075
:100D50002B23002F01DA7F422D230A21021EA0F14E
:100D6000010000DC5FB197FBF1FC97FBF1F201FBA6
:100D70001C7C17460CF1300C08F801CDEEE7A8F109
:100D8000010003702188090501D5452100E0652196
:100D9000A0F1010800F8011C09980FA9A1EB0807B0
:100DA000FF1D00B10120411901EBEA70A16938442F
:100DB000081A401EA0612078C00602D42046FFF722
:100DC0005FFB099828B1D4E901219047206A401CB3
:100DD00020622078C00622D52046FFF751FB1EE096
:100DE000002E04DBB34502DD01A8805D00E0302069
:100DF000D4E901219047206A401C2062761CAAF1A8
:100E000001005FEA000A0AD100F0C6F8C068016874
:100E1000405CD4E901219047206A401C2062281ED2
:100E2000A5F10105DCDC07E0D4E9012118F8010B8C
:100E30009047206A401C2062381EA7F10107F3DCAE
:100E40002046FFF733FB032011B041E601694A1C3D
:100E500002610878704700B58FB0CDE901310021FB
:100E6000059105497944CDE9031011466846FFF71D
:100E700057FC0FB000BD0000E5FFFFFF0A6802F855
:100E8000010B0A60704710B5436913B1AFF30080DE
:100E900001E0FFF72EFB012010BD127800F12401C4
:100EA0000A7000224A700122EDE711684FF0FF320C
:100EB000E9E70000074B70B50D467B44FFF7CBFF19
:100EC0000446284600F068F910B14FF0FF3070BDBD
:100ED000204670BDDBD6000010B5436913B1AFF3F7
:100EE000008001E0FFF76AFB012010BD128800F1CD
:100EF000240182840022C2840122EDE711684FF0B0
:100F0000FF32E9E770B516460C46054600F03CF89E
:100F1000036893F80101012806D0FF2C0FD8185D53
:100F200068B101202C7070BDD3F80701324621460C
:100F300003F2071303442846BDE8704018474FF0FA
:100F4000FF3070BD4FF000020429C0F0128010F095
:100F5000030C3FF4DFACCCF1040CBCF1020F18BF62
:100F600000F8012BA8BF20F8022BA1EB0C01FFF722
:100F7000D1BC5FEAC17C24BF00F8012B00F8012B33
:100F800048BF00F8012B704710B500F005F8001DB0
:100F900010BD00BF31F500000048704778480020C0
:100FA000004870475848002030B5B0F10A024FEAB7
:100FB000900E71F100034EEA817EB0EB0E0061EB02
:100FC00091014FEA101E4EEA017E10EB0E0041EB3C
:100FD00011114FEA102E4EEA016E10EB0E0041EB9C
:100FE00011214FEA104E4EEA014E10EB0E0041EB7C
:100FF0001141401841F100014FEAD00040EA417030
:101000004FEAD10110EB80054FEA810444EA907465
:1010100044EB01046D1944EB0404521BA3414FF04F
:10102000000348BF0A3200D530BD401C41F1000129
:1010300030BD00002DE9F0411F460446032601683B
:10104000072A01F4006004DB08B116A505E016A527
:1010500003E008B115A500E015A521F010002060FF
:10106000A069C01EA0610FB1401EA0612046FFF71D
:1010700007FA4FB1D4E9012138469047206A401C55
:101080002062C01C206206E0206AFAE7D4E9012150
:1010900015F8010B9047761EF8D22046FFF706FAA6
:1010A000BDE8F0814E414E006E616E00494E460033
:1010B000696E66002DE9F047814616468AB03548CC
:1010C00078440DC88DE80D0032487844801C03AC8C
:1010D0000DC884E80D0041F69B300844372190FB91
:1010E000F1F290FBF1F5A5F1800501FB12041B3C28
:1010F00002D56442012000E00020DFF898A080467D
:101100000027FA44AAF1BE0A0EE0E0070AD03246F0
:10111000684607EB470101230AEB810100F043FB1E
:101120008DE8070064107F1C002CEED1194F7F441E
:10113000AE3F19E0E80715D007EB04100DF1180ACF
:1011400090E80E008AE80E00C068F04201D19819BC
:1011500008903246012306A903A800F024FB03AB44
:1011600083E807006D10641C002DE3D14FF00103EC
:1011700032466946B8F1000F03A802D000F0FEFA2B
:1011800001E000F010FBC9E90001C9F808200AB02D
:10119000BDE8F087D8320100007B00F08000704786
:1011A00000487047584800207546FFF7F9FFAE46E3
:1011B00005006946534620F00700854618B020B563
:1011C000FFF790F8BDE820404FF000064FF0000711
:1011D0004FF000084FF0000B21F00701AC46ACE8DF
:1011E000C009ACE8C009ACE8C009ACE8C0098D464C
:1011F000704710B50446AFF300802046BDE81040AC
:10120000FFF75BB84FF0013C50F8042B51F8043B5A
:101210009A4221D1A2EB0C03934313EACC1317D1CA
:1012200050F8042B51F8043B9A4215D1A2EB0C0361
:10123000934313EACC130BD150F8042B51F8043B21
:101240009A4209D1A2EB0C03934313EACC13DBD0EF
:101250004FF00000704700BFD01A01BAB1FA81F117
:1012600001F0180122FA01F0CB40C1F12001DBB2FC
:10127000C0B2C01A2CFA01F3D11A914311EAC3117A
:10128000E6D170475FEA400C08BF91F0000F4FEACB
:101290008C234FEAC12243EA51514FEA1C5018BF38
:1012A00000F5F0404FEA300018BF41F000415FEA1E
:1012B0006C5C00F02980BCF1FF3F08BF40F080402B
:1012C0007047130C06BF12044FF0100C4FF0000CC7
:1012D000130E04BF12020CF1080C130F04BF12010D
:1012E0000CF1040C930F04BF92000CF1020CD30F0D
:1012F00004BF52000CF1010C11464FF00002A0F1A6
:101300001F00A0EB0C00704711F0004F08BF7047A2
:1013100031F000413FF4D5AF0B0C06BF09044FF08C
:10132000100C4FF0000C0B0E04BF09020CF1080C5E
:101330000B0F04BF09010CF1040C8B0F04BF8900D3
:101340000CF1020CCB0F04BF49000CF1010CCCF1E5
:101350002003A0EB0C0022FA03F302FA0CF241EA9C
:10136000030100F10100704720F07F4C80EA030088
:1013700023F07F47ACEB070303F57C5300F00040FC
:1013800003F1FF032DE980494FEA154B09B44FEAF9
:10139000144325EA0B4E24EA03480FF2042606EB19
:1013A000132749083E785FEA320203FB0667C7F558
:1013B000000707FB06F64FEA54374FEAD64606F118
:1013C000020607FB066CCCF1005C4FEA1C472CEAD6
:1013D000074C07FB06F40CFB06F504EB15464FEA39
:1013E000961634BF00204FF000404FEAD13706FB7D
:1013F00007FC4FEA1C4C0CFB0BF7D21B03FB0CF752
:1014000061EB07010CFB0EF7B0EB074072EB1742E4
:101410000CFB08F734BFA2EB0742B2EB074261EBCB
:1014200017414FEA0C444FEA910706FB07FC4FEACD
:101430001C4C0CFB0BF7B0EBC74072EB573203FBB5
:101440000CF734BFA2EBC742B2EBC74261EB573196
:101450000CFB0EF7B0EBC70072EB57720CFB08F7F2
:1014600034BFA2EBC702B2EBC70261EB5771039F17
:101470004FEA816141EA921104EBCC044FEAD13783
:101480004FEA826206FB07FC42EA90124FEA806054
:101490004FEA1C4C0CFB0BF7D21B03FB0CF761EB68
:1014A00007010CFB0EF7B0EB074072EB17420CFB89
:1014B00008F734BFA2EB0742B2EB074261EB1741DA
:1014C0004FEA8C554FEA910704EB9C2406FB07FC7E
:1014D0004FEA1C4C0CFB0BF7B0EBC74072EB5732DA
:1014E00003FB0CF734BFA2EBC742B2EBC74261EB80
:1014F00057310CFB0EF7B0EBC70072EB57720CFBC9
:1015000008F734BFA2EBC702B2EBC70261EB577119
:1015100015EB4C254FEA816141EA92114FEA826254
:101520004FEAD13742EA901206FB07FC44F100046F
:101530004FEA80604FEA1C4C0CFB0BF7D21B03FBFD
:101540000CF761EB07010CFB0EF7B0EB074072EBF9
:1015500017420CFB08F734BFA2EB0742B2EB07427D
:1015600061EB174115EB1C154FEA813141EA9241BD
:101570004FEA823242EA90424FEA80304FEA0C76DC
:1015800044F1000448EA03434EEA0B484FF0000ED2
:10159000B2EB080C71EB030724BF624639464EEBF1
:1015A0000E0E4FF0000B0018524149414BEB0B0B54
:1015B000B2EB080C71EB03077BF1000B24BF624612
:1015C00039464EEB0E0E4FF0000B001852414941C8
:1015D0004BEB0B0BB2EB080C71EB03077BF1000B31
:1015E00024BF624639464EEB0E0E51EA020718BF81
:1015F00046F0010616EB0E7655F1000254F100019B
:1016000003D5BDE88901BDE80088BDE88901BDE8D2
:101610000048B619524141EB0101A3F101037047A3
:1016200080807F7E7D7C7B7A79787776767574731F
:10163000727171706F6E6E6D6C6C6B6A6A696868DE
:10164000676666656464636362616160605F5F5E74
:101650005E5D5D5C5C5B5B5A5A59595858575756EA
:10166000565555555454535352525251515050504F
:101670004F4F4F4E4E4D4D4D4C4C4C4B4B4B4A4AA1
:101680004A494949484848474747474646464545E5
:10169000454444444443434343424242424141411E
:1016A000002B9C4630D477002BD01CB54FEA37076F
:1016B00003B44FF010004FF01001BAF1000F06D044
:1016C000BCF1000FDCBF40F0080040F008014FF013
:1016D00000000FBCBDE810400BF1010BBBF1010F86
:1016E00008BF5FEA170722BF12F1010211F10101E1
:1016F0004FF0004143F1000300F0004043EA0000D6
:101700007047F9D35708D0E746EA064613F1400F71
:101710004FEA16461FDD13F1200FDFBF16430A46BE
:10172000002120335B42BED0C3F1200746EA0646C3
:1017300002FA07F74FEA164646EA0706C3F1200702
:1017400022FA03F201FA07F721FA03F14FF000033E
:1017500042EA0702A7E746EA020646EA06464FEAD9
:10176000164646EA0106BCBF46EA0646360C4FF06E
:1017700000034FF000024FF0000194E72DE9804C88
:101780009A46934670B491E8380007C831EA400C95
:1017900048BF34EA430C03D5FFF7E6FDFFF780FFAF
:1017A000F0BCBDE8008C2DE9804C9A46934670B49D
:1017B00091E8380007C810F0804F08BF13F0804F41
:1017C00003D100F005F8FFF76BFFF0BCBDE8008C1B
:1017D00020F07F4780EA030023F07F4C07EB0C03E7
:1017E000A3F57C5300F00040A3F1FE0392F0000F3C
:1017F00000F0B38095F0000F00F077802DE90149EB
:101800004FEA11404FEA144621EA004800FB06FC6B
:1018100024EA064708FB06F607FB08F800FB07F773
:1018200018EB06484CEB164C4FEA124B18EB0748E6
:101830004FEA15464CEB174022EA0B4E0BFB06FC19
:1018400025EA06470EFB06F607FB0EFE0BFB07F725
:101850001EEB064E4CEB164C4FF000061EEB074EEF
:101860004CEB174B18EB0B0840F1000018EB0E0B7C
:1018700058EB000840F100008F1A4FF000013CBF08
:10188000C943661B14BFB5EB040C00213CBFC94320
:10189000F61B4FEA17444EEA8E0E27EA04454FEA3C
:1018A0001C4704FB07622CEA074C05FB07F70CFBFF
:1018B00005F604FB0CFC16EB074642EB174216EB51
:1018C0000C4642EB1C421BEB060658EB0202414160
:1018D00046EA9E0601D5BDE80189B619524141EBA1
:1018E0000101A3F10103BDE801894FEA14454FEA64
:1018F000114724EA054621EA074C05FB07F406FBDD
:1019000007F70CFB06F105FB0CFC11EB074144EB60
:1019100017444FEA124711EB0C4144EB1C4422EAF6
:10192000074C05FB07F206FB07F70CFB06F605FB69
:101930000CFC16EB074642EB174216EB0C4642EB4B
:101940001C456A1854F1000148BF7047B61952414E
:1019500041EB0101A3F10103704795F0000F37D06F
:101960004FEA11424FEA144721EA024624EA074CA3
:1019700002FB07F106FB07F70CFB06F402FB0CFC6D
:1019800014EB074441EB17414FEA154714EB0C44A5
:1019900041EB1C4125EA074C02FB07F506FB07F764
:1019A0000CFB06F602FB0CFC16EB074645EB174555
:1019B00016EB0C4645EB1C42121951F1000148BFD1
:1019C0007047B619524141EB0101A3F10103704781
:1019D0004FEA14454FEA114724EA054621EA074C2D
:1019E00005FB07F106FB07F70CFB06F24FF00006BC
:1019F00005FB0CFC12EB074241EB174112EB0C42CA
:101A000051EB1C4148BF7047921841EB0101A3F113
:101A10000103704755494A6822F440324A604A68D7
:101A200043681A434A600268526822F4807203686D
:101A30005A6002685368026943EA022203685A60E6
:101A40000268526822F0407203685A600268526865
:101A500083681A4303685A600268926822F400623D
:101A600003689A6002689268C3681A4303689A60C0
:101A70003F4B826A9A4218D00268926822F07062E4
:101A800003689A6002689268836A1A4303689A60DE
:101A90000268926822F0405203689A600268926875
:101AA000C36A1A4303689A600BE00268926822F0E6
:101AB000706203689A600268926822F0405203687C
:101AC0009A600268926822F0020203689A600268D3
:101AD0009368027E43EA420203689A602022125C05
:101AE000A2B10268526842F4006203685A60026858
:101AF000526822F4604203685A6002685368426A7E
:101B0000521E43EA423203685A6005E00268526896
:101B100022F4006203685A600268D26A22F47002FA
:101B20000368DA620268D36A828B521E43EA025269
:101B30000368DA620268926822F4007203689A60AD
:101B40000268936890F8302043EA422203689A6062
:101B50000268926822F4806203689A60026893685F
:101B6000426943EA822203689A6070470023014079
:101B70000100000FFEB505460E461746002404F08E
:101B800025F9A62004F0F0F804F072F9322004F0F0
:101B9000EBF804F06DF904F019F9A72004F0E4F86B
:101BA00004F066F900BF0CE004F0B2F82DF8140060
:101BB000052C02D104F050F801E003F0E1FF601CB5
:101BC000C4B2062CF0DB04F02BF9BDF80000BDF820
:101BD000021000EB012000B22880BDF80400BDF81F
:101BE000061000EB012000B23080BDF80800BDF8FF
:101BF0000A1000EB012000B23880FEBD70B52DED5B
:101C00000C8BF0EE409AF0EE608AB0EE418A054609
:101C100025B1012D3CD0022D74D174E028EEA80A24
:101C200008EE080A10EE101A08460FF06DFA41ECA3
:101C30001D0BB0EE4D0AF0EE6D0A0BF069FAB0EE36
:101C400040BAF0EE60BA19EE900A0FF05DFA41EC7E
:101C50001C0B53EC1B2B0EF045FD41EC1A0B0EF048
:101C600053FC044620460FF04FFA41EC1B0BB0EE3C
:101C70004B0AF0EE6B0A0AF053FAB0EE40AAF0EE0F
:101C800060AA51EC1A0B0EF03FFC09EE100A77E047
:101C900029EEA90A08EE080A10EE101A08460FF0FD
:101CA00033FA41EC1D0BB0EE4D0AF0EE6D0A0BF06D
:101CB0002FFAB0EE40BAF0EE60BA18EE900A0FF0CC
:101CC00023FA41EC1C0B53EC1B2B0EF00BFD41ECEB
:101CD0001A0B0EF019FC044620460FF015FA41ECE1
:101CE0001B0BB0EE4B0AF0EE6B0A0AF019FAB0EEDD
:101CF00040AAF0EE60AA51EC1A0B0EF005FC09EEBA
:101D0000100A3DE03BE018EE100A0FF0FDF941EC3F
:101D10001B0B29EEA90A08EEA80A10EE101A0846B5
:101D20000FF0F2F941EC1D0BB0EE4D0AF0EE6D0A2A
:101D30000BF0EEF9B0EE40CAF0EE60CA53EC1B2B8C
:101D400051EC1C0B0EF0CEFC41EC1A0B0EF0DCFB40
:101D5000044620460FF0D8F941EC1B0BB0EE4B0ABD
:101D6000F0EE6B0A0AF0DCF9B0EE40AAF0EE60AAE1
:101D700051EC1A0B0EF0C8FB09EE100A00E000BF90
:101D800000BF9FED0C0A29EE000A10EE101A08465B
:101D90000FF0BAF941EC1B0B9FED070B53EC102B26
:101DA0000EF0A0FC41EC1A0B0EF0F4FD00B2BDECFD
:101DB0000C8B70BD000034431F85EB51B81E0940E9
:101DC00010B5002403F008FF002000F061F804467D
:101DD000E52C19D12B21312000F078F828212D2075
:101DE00000F074F800212E2000F070F800211E2071
:101DF00000F06CF800211F2000F068F8002120207E
:101E000000F064F8012010BD0020FCE72DE9FE433E
:101E100004460D4616461F464FF00008002030804D
:101E20002880208000BF1DE06A4601A902A8FFF7B4
:101E3000A1FE2088BDF80810084400B22080288840
:101E4000BDF80410084400B228803088BDF80010A6
:101E5000084400B2308005200BF05EFE08F101005E
:101E600000F0FF08B845DFDBB4F9000090FBF7F0A5
:101E700000B22080B5F9000090FBF7F000B2288096
:101E8000B6F9000090FBF7F000B23080BDE8FE83A9
:101E900070B50446002503F099FFA62003F064FF07
:101EA00003F0E6FF204603F05FFF03F0E1FF03F0DD
:101EB0008DFFA72003F058FF03F0DAFF012003F0A5
:101EC000F3FE054603F0ACFF284670BD70B505462D
:101ED0000C4603F07BFFA62003F046FF03F0C8FF8B
:101EE000284603F041FF03F0C3FF204603F03CFF08
:101EF00003F0BEFF03F094FF70BD000010B5022197
:101F0000014801F023FE10BD000C024000B587B06F
:101F100000BF002001900E48006840F008000C4906
:101F200008600846006800F00800019000BF00BF8C
:101F3000022002900120039004900320059002A942
:101F4000044801F0F9FE00200349086007B000BD15
:101F500030380240000C02408482414210B500F04B
:101F600005F8012006F0E1F910BD000000B587B0CA
:101F700000BF002001901A48006840F00100184995
:101F800008600846006800F00100019000BF00BF33
:101F900000BF002001900846006840F0040008607F
:101FA0000846006800F00400019000BF00BF8815DB
:101FB00002900120039004900320059002A9094893
:101FC00001F0BAFE4FF400700290012003900490DB
:101FD0000320059002A9044801F0AEFE07B000BD41
:101FE00030380240000002400008024010B505F001
:101FF0001BFC01200849086002200BF099FD0748EE
:10200000D0F82402C4B200200349086002200BF07B
:102010008FFD204610BD0000A0024042000041425A
:1020200070B5002405F000FC01200F490860002570
:1020300015E06006040E01200C49086002200BF038
:1020400077FD0B48D0F8240208B1601CC4B2002010
:102050000649086002200BF06BFD681CC5B2082D14
:10206000E7DB204670BD0000A4024142A0024042CE
:102070000000414210B5044605F0F8FB1CB10120F8
:102080000949086002E0002007490860012007496B
:10209000086002200BF04CFD00200549C1F8A002A9
:1020A00002200BF045FD10BDA4024142A0024042B7
:1020B0000000404270B5044605F0D8FB00251AE048
:1020C00004F080061EB101200D49086002E00020E6
:1020D0000B4908606006040E01200A4908600220CE
:1020E0000BF026FD00200849C1F8A00202200BF0E9
:1020F0001FFD681CC5B2082DE2DBFFF777FF70BD3E
:10210000A4024142A00240420000404210B505F046
:10211000ADFB0120094908600949C1F8A00204206B
:102120000BF006FD00200549086004200BF000FDBF
:1021300000200349C1F8A00210BD0000A4024142E2
:102140000000404210B505F091FB002007490860EF
:1021500001200749C1F8A00204200BF0E9FC01208E
:102160000249086004200BF0E3FC10BDA4024142C8
:102170000000404200BFFEE72DE9F04107468846D7
:1021800015460421052000F02DF80021012009F05A
:1021900069FE80210A2006F0A1F8002405E0395DDF
:1021A000092009F05FFE601CC4B24445F7DB03213F
:1021B000012009F057FEFF2400BF052005F02AFB8F
:1021C0000646601EC4B21CB106F004000028F4D01C
:1021D000222005F01FFB2870212005F01BFB6870F2
:1021E000BDE8F08170B505460C460026284605F08E
:1021F00011FB064626EA0401284609F033FE70BDAD
:102200000EB50C480C490860084601F0ACFA2420D1
:10221000019002200290002201A9074801F061FA12
:1022200000206423054A01460090034801F0ECFABF
:102230000EBD000000740040A4210020DC2000201E
:1022400070B50446A56B284601F078FA0120287184
:1022500070BD70B50446A56B284601F03FFA012019
:10226000287170BD70B50546AC6B206940F0040064
:102270002061204601F076FA0120207170BD70B512
:102280000546AC6B206940F004002061204601F057
:1022900027FA0120207170BD70B50446A56B284651
:1022A00001F04DFA70BD70B50446A56B284601F0EB
:1022B00016FA70BD10B5054801F04AFB044802F05B
:1022C000AFFA044801F03CFA10BD0000B82100202C
:1022D000B0230020A421002010B54FF06061054814
:1022E00003F0F6FD002142F2107006F0C7F8FFF788
:1022F00087FF10BD8860024070B504462146542017
:102300000BF0F4FB0546002106F0B8F870BD0000A4
:1023100010B500241448006820F00C001249086031
:1023200008460068086004E0601CC4B201200BF09D
:10233000FFFB0E48006808B1642CF5DB642C01DB60
:10234000012010BD002404E0601CC4B201200BF089
:10235000EFFB0648006808B9642CF5DB642C01DB50
:102360000120EEE70020ECE70000024004024042BA
:1023700000B587B000BF002001900F48006840F012
:1023800001000D4908600846006800F00100019056
:1023900000BF00BF022002900120039004900320A0
:1023A000059002A9054801F0C7FC00F06BF8FFF7A3
:1023B000AFFF07B000BD000030380240000002400F
:1023C00010B5002404E0601CC4B201200BF0B0FB87
:1023D0000D48006808B1642CF5DB002404E0601CA3
:1023E000C4B201200BF0A4FB0748006808B9642CB4
:1023F000F5DB28200BF09CFB0348006808B10120A6
:1024000010BD0020FCE700000402404270B500242B
:10241000002506E06006040EFFF7D2FF0443681CA7
:10242000C5B2082DF6DB204670BD7CB505460E46CC
:1024300000F028F8FFF76CFFF8B9002405E0FFF77B
:10244000E5FF0DF80400601CC4B2052CF7DB9DF815
:1024500000009DF8011008449DF8021008449DF802
:10246000031008449DF80410884208D19DF800002C
:1024700030809DF80200288001E001207CBD002012
:10248000FCE7000010B50C48006820F00C000A4979
:1024900008600846006840F0040008600020074912
:1024A000086014200BF038FB01200549C1F88402B4
:1024B0001E200BF03DFB10BD000002408402404294
:1024C000000040420146087810381823B0FBF3F2B0
:1024D0000848805CC865032A05D908686FF30900BD
:1024E000001D886503E008686FF309008865886D42
:1024F000704700000A130108014600208A6A8B69B0
:10250000CBB932B1012A0DD0022A03D0032A10D14F
:102510000EE000BFCB6A03F08073B3F1807F00D17F
:10252000012007E0CB6AB3F1C07F00D1012001E0B8
:1025300000E000BF34E08B69B3F5005F1AD132B11F
:10254000012A07D0022A03D0032A11D10AE000BFD2
:1025500001200EE0CB6A03F08073B3F1807F00D1DD
:10256000012006E0CB6AB3F1C07F00D1012000E07A
:1025700000BF15E032B1012A05D0022A04D0032A97
:102580000CD103E000BF00BF012008E0CB6A03F0DC
:102590008073B3F1807F00D1012000E000BF00BF55
:1025A000704730B50468246824F4802405682C60E2
:1025B000046863608468402C04D10468A2600468E5
:1025C000E16003E00468A1600468E26030BD0000DF
:1025D00010B500241448006820F440201249086017
:1025E00008460068086004E0601CC4B201200BF0DB
:1025F0009FFA0E48006808B1C82CF5DBC82C01DB37
:10260000012010BD002404E0601CC4B201200BF0C6
:102610008FFA0648006808B9F02CF5DBF02C01DBD6
:102620000120EEE70020ECE7001802401C024242C5
:102630002DE9F0412DED048B00F0CCF800F0A8F866
:10264000FFF7C6FFCC2000F0D1F8BE2000F0CEF896
:1026500000F08CF8074600F089F80446072C05DDE9
:10266000E043C4B2F843C7B2002600E00126254685
:10267000280205B2E81905B228460EF0E8F941EC47
:10268000190B9FED0A0B53EC102B0EF047FA41EC9F
:10269000180B0EF07FF905B226B12846BDEC048B6D
:1026A000BDE8F081684200B2F8E7000000000000D9
:1026B0000000E43F00B587B000BF002001900F4844
:1026C000006840F010000D4908600846006800F0FE
:1026D0001000019000BF00BF8020029001200390F5
:1026E00004900320059002A9054801F025FB00F0A5
:1026F0004FF8FFF76DFF07B000BD00003038024013
:102700000010024010B51648006820F4402014491B
:1027100008600846006840F48020086000201149E5
:10272000086002200BF004FA01200F49C1F89C0256
:102730000B48006820F440200949086008460068FA
:1027400008600C200BF0F4F906488038006808B1E6
:10275000012400E0002432200BF0EAF9204610BDED
:10276000001802409C0242420000424270B500261E
:10277000012508E0FFF7C6FF0446E00140EA6600D5
:10278000C6B2681CC5B2082DF4DD304670BD00002D
:1027900010B50D48006820F440200B490860084639
:1027A000006840F48020086000200849086040F27A
:1027B000EE200BF0BDF901200549C1F89C020F2065
:1027C0000BF0B6F910BD0000001802409C02424216
:1027D0000000424210B5FFF7DBFFFFF7F9FECC2007
:1027E00000F004F8442000F001F810BD70B5044674
:1027F0001848006820F44020164908600846006820
:1028000040F480200860012520E004F001066410F7
:102810006EB100201049086002200BF089F90120F8
:102820000E49C1F89C023C200BF082F90CE000201C
:10283000094908603C200BF07BF901200749C1F8E9
:102840009C0202200BF074F9681CC5B2082DDCDD77
:1028500070BD0000001802409C024242000042424B
:102860007047000000B587B000BF002001901948F4
:10287000006840F01000174908600846006800F042
:102880001000019000BF00BFC814029012480390CE
:1028900002200490059002A9104801F04DFA002290
:1028A0001146282001F0AFFB282001F09CFB4FF4DB
:1028B00000700290002003900220049003200590F5
:1028C00002A9064801F038FA00200549086007B05F
:1028D00000BD00003038024000002110001002400E
:1028E000E408002010B54FF4006001F017FA4FF42F
:1028F000FA700BF01DF90A48006801280FD108484A
:1029000008380068012805D106480068401C0549C0
:10291000086004E003480068401E0249086010BDDA
:102920002C024242E408002010B54FF4007001F080
:10293000F5F910BD10B50446012C02D102F0B6FD28
:102940001FE0022C0AD100BF02F0EAFF0028FBD1F1
:1029500000BF0CF0D1F90028FBD112E0032C02D10A
:1029600002F06AFF0DE0042C02D104F018FB08E02D
:10297000052C02D102F016FC03E0092C01D1FFF76F
:102980001FFA062C02D1FFF7F3FC08E0072C02D156
:1029900004F0BAFF03E0082C01D100F081F810BD6B
:1029A00010B52DED108B0A21012000F0BDF9044671
:1029B0000EF064F841EC1A0B9FED2D0B53EC102B2D
:1029C0000EF0ACF841EC190B9FED2B0B53EC102BD8
:1029D0000DF088FE41EC180B53EC182B9FED280BE3
:1029E00051EC100B0EF09AF841EC1A0B53EC182B2B
:1029F0009FED250B51EC100B0EF090F841EC1E0BE7
:102A000053EC182B0EF08AF841EC1C0B53EC182BEE
:102A10009FED1F0B51EC100B0EF080F841EC1F0BDB
:102A200053EC182B0EF07AF841EC1E0B53EC182BDC
:102A30000EF074F841EC1D0B53EC1C2B0DF096FDC1
:102A400041EC1B0B53EC1A2B0EF074FA41EC190BF2
:102A50009FED110B53EC102B0DF088FD41EC180B82
:102A6000B0EE480AF0EE680ABDEC108B10BD000015
:102A70006666666666660A400000000000FEAF40BB
:102A80000000000000806140F6285C8FC235524093
:102A90006666666666662AC048E17A14AEC75A4022
:102AA00010B503F067FA10BD10B50446052C7DD2B1
:102AB000DFE804F0031C354E6700102340A200211C
:102AC000702003F041FF10233DA20221702003F08B
:102AD0003BFF10233AA20421702003F035FF10239E
:102AE00037A20621702003F02FFF66E0102335A2E5
:102AF0000021702003F028FF102331A20221702052
:102B000003F022FF10232EA20421702003F01CFFEB
:102B100010232BA20621702003F016FF4DE0102396
:102B200028A20221702003F00FFF102324A200210D
:102B3000702003F009FF102321A20421702003F06C
:102B400003FF10231EA20621702003F0FDFE34E0D7
:102B500010231CA20421702003F0F6FE102318A2FB
:102B60000221702003F0F0FE102315A20021702036
:102B700003F0EAFE102312A20621702003F0E4FE07
:102B80001BE010230FA20621702003F0DDFE1023AE
:102B90000BA20221702003F0D7FE102308A204210B
:102BA000702003F0D1FE102305A200E004E0002114
:102BB000702003F0C9FE00E000BF00BF10BD0000A0
:102BC000202000003C2D000010B5002002F080FD08
:102BD0000446002C6ED04048007840490870012C13
:102BE00036D0022C1AD0032C4BD0042C60D13A489A
:102BF000007800EB40003A4901EB8000407836490C
:102C000008700120374908600020091D0860354917
:102C1000083908603449C1F884024AE003F011FC25
:102C20002D48007800EB40002D4901EB8000C07872
:102C30002949087000202B49091D08602949091FEE
:102C40000860091D086001202749C1F8800230E0B2
:102C50002148007800EB4000214901EB800080789A
:102C60001D49087001201F49091F086000201D49E7
:102C7000091D08601B49083908601B49C1F8880212
:102C800017E01548007800EB4000154901EB800083
:102C90000079114908700020124908390860091D9F
:102CA0000860091D086001200F49C1F88C0200E08E
:102CB00000BF00BF0848007800EB4000084901EB66
:102CC0008000806809490860214603480078074A67
:102CD0001268904710BD0000120000201300002071
:102CE00018000020880242420000424214000020E6
:102CF0001FB5044600940120019007200290002097
:102D000003906946074800F0B5FA064800F048FC11
:102D10000A21044800F0E2FB024800F071FB80B297
:102D200004B010BD302400202DE9F04107460C46C8
:102D30000025002608E03846FFF7DAFF05440520A5
:102D40000AF0EAFE701CC6B2A642F4DBB5FBF4F052
:102D500080B2BDE8F08100001FB504460094012058
:102D600001900020029003906946084800F082FA22
:102D7000064800F015FC0A21044800F0AFFB0348A8
:102D800000F03EFB80B204B010BD0000182200200D
:102D90002DE9F04107460C460025002608E038469C
:102DA000FFF7DAFF054405200AF0B6FE701CC6B234
:102DB000A642F4DBB5FBF4F080B2BDE8F081000080
:102DC00010B52DED068B00201749087048708870EB
:102DD000C87016490880012005F0A7FA102005F0F8
:102DE000A4FA03F00FFB10480478407800EB0424A9
:102DF00020460DF02CFE41EC1A0B9FED0D0B53EC11
:102E0000102B0DF06FFC41EC190B0DF07DFB08EE63
:102E1000100ABDEEC80A10EE100A044908800846E0
:102E20000088BDEC068B10BDCA080020CE0800202B
:102E3000333333333333F33FFFB502460B460020C1
:102E40000290039000900190002500243AE0BDF824
:102E50000A00801E81B210E0505C012802DD0020D3
:102E600004B0F0BD565C481C105C301A401C10B910
:102E7000ADF8081003E0481C81B29942ECDB00BFBA
:102E8000BDF80800801C81B20FE0505C012801DD14
:102E90000020E5E7565C481C105C301A012802D17E
:102EA000ADF80A1003E0481C81B29942EDDB00BF87
:102EB000BDF80A00BDF80810401A80B22DF81400C1
:102EC000601C84B2032CC2DB012118E0002012E058
:102ED0003DF81060441C3DF81440A64209DD3DF861
:102EE0001050441C3DF814402DF81040441C2DF89F
:102EF0001450441CE0B20228EADB481CC1B203298A
:102F0000E4DBBDF8020010B1BDF80200A8E7BDF88F
:102F10000400A5E7FFB502460B460020029003908F
:102F2000009001900025002452E0BDF80C00801EA6
:102F300081B210E0505C012802DD002004B0F0BD39
:102F4000565C481C105C301A401C10B9ADF80810D3
:102F500003E0481C81B29942ECDB00BFBDF80800D9
:102F6000801C81B20FE0505C012801DD0020E5E704
:102F7000565C481C105C301A012802D1ADF80A10CA
:102F800003E0481C81B29942EDDB00BFBDF80A00A6
:102F9000801C81B20FE0505C012801DD0020CDE7EC
:102FA000565C481C105C301A401C10B9ADF80C106F
:102FB00003E0481C81B29942EDDB00BFBDF80C0074
:102FC000BDF80810401A80B22DF81400601C84B2BD
:102FD000032CAADB012118E0002012E03DF810606C
:102FE000441C3DF81440A64209DD3DF81050441C35
:102FF0003DF814402DF81040441C2DF81450441C8A
:10300000E0B20228EADB481CC1B20329E4DBBDF8C8
:10301000020010B1BDF8020090E7BDF804008DE792
:1030200010B52DED088B0A211020FFF7B1FE08EE38
:10303000100AB8EE480A10EE100A0EF065F841ECDE
:103040001A0B9FED1A0B53EC102B0DF067FD41ECA2
:10305000190B9FED180B53EC102B51EC190B0DF0C5
:1030600069FF41EC1B0B9FED150B53EC102B0DF082
:1030700039FB41EC1A0B9FED130B53EC102B0DF0A9
:1030800075FA41EC190B9FED110B53EC102B51EC21
:10309000190B0DF043FD41EC190B41EC1A0B0DF02F
:1030A00079FC04B22046BDEC088B10BD66666666EE
:1030B00066664A3F52B81E85EB51E83F7B14AE4727
:1030C000E17A643F00000000000039400000000089
:1030D0000000594010B52DED068B04460A2120460C
:1030E000FFF756FE08EE100AB8EE480A10EE100A76
:1030F0000EF00AF841EC1A0B9FED070B53EC102B66
:103100000DF00CFD41EC190B0DF0FEF900EE100A6C
:10311000BDEC068B10BD00006666666666664A3FBB
:1031200070B52DED068B94B0044650216846FDF72E
:10313000EFFB002500200AE004EB800191ED000A7E
:10314000314901EB800181ED000A411C88B2B0F5E4
:103150005E7FF1DB00212AE0002500201BE06A46AB
:1031600002EB810292ED000A274A02EB8002D2EDC7
:10317000000AB4EEE00AF1EE10FA0AD2224A02EB9B
:10318000800292ED000A6A4602EB810282ED000A9B
:103190000546421C90B2B0F55E7FE0DB9FED1B0A56
:1031A000194800EB850080ED000A481C81B2142903
:1031B000D2DB9DED090A20EE000ADDED0A0A9DED45
:1031C0000A1A00EE810AF0EE000A80EE201A11EED3
:1031D000106A30460DF098FF41EC1A0BB0EE4A0A27
:1031E000F0EE6A0A09F094FFB0EE409AF0EE609AB1
:1031F00051EC190B0DF088F908EE100AB0EE480AF0
:1032000014B0BDEC068B70BD20250020000000002E
:1032100010B502F093F91349086008460068124996
:1032200008600846006811490968401A0E4908609C
:103230000846006800280FDD084690ED000AB8EE49
:10324000C00A0B48D0ED000A80EE201ABDEEC10A7C
:10325000084680ED000A02E00020034908600248A9
:10326000006810BDF808002000090020FC080020BC
:103270000409002038B502460020009000BF92F8F3
:103280003C00012801D1022038BD012082F83C0019
:1032900000BF0868092816D91068C0680C780A3C75
:1032A00004EB44050724AC40A0431468E0600C78AC
:1032B0000A3C04EB44048868A0401468E468204396
:1032C0001468E06013E0106800690C7804EB4405B2
:1032D0000724AC40A043146820610C7804EB44043C
:1032E0008868A040146824692043146820614868F5
:1032F000072817D21068406B0C79641E04EB840514
:103300001F24AC40A04314686063088880B20C7925
:10331000641E04EB8404A0401468646B20431468AA
:10332000606331E048680D2817D21068006B0C7993
:10333000E41F04EB84051F24AC40A0431468206301
:10334000088880B20C79E41F04EB8404A040146860
:10335000246B20431468206316E01068C06A0C795F
:103360000D3C04EB84051F24AC40A0431468E062CC
:10337000088880B20C790D3C04EB8404A0401468EA
:10338000E46A20431468E062194B1A4C1068A042AA
:1033900006D10868122803D1586840F480005860AC
:1033A000144C1068A0421CD10868102802D008688C
:1033B000112816D1586840F4000058600868102899
:1033C0000FD10D4800680D4CB0FBF4F000EB80000D
:1033D0004000009002E00098401E009000980028F5
:1033E000F9D100BF002082F83C0000BF00BF4BE7CE
:1033F00000230140002001400000002040420F0057
:1034000001460868C06C704770B5044600250CB9C9
:10341000012070BD1549A06A884200D000BF206C11
:1034200030B9204600F024F80020606484F83C00A5
:10343000206C00F0100088B9206C20F4885040F017
:10344000020020642046FEF7E5FA00206064206C4C
:1034500020F0020040F00100206400E0012500BFE0
:10346000002084F83C0000BF2846D2E70100000F8E
:1034700010B586B0044600BF0020009015480068D3
:1034800040F48070134908600846006800F48070BA
:10349000009000BF00BF00BF002000900D4814380E
:1034A000006840F004000B491439086008460068C1
:1034B00000F00400009000BF00BF01200190032035
:1034C00002900020039001A9034800F035FC06B0EB
:1034D00010BD0000443802400008024070B50446A8
:1034E0000D4600262068806800F48060B0F5806F8B
:1034F00011D12068806800F48070B0F5807F0AD117
:10350000206C40F02000206400BF002084F83C00C4
:1035100000BF012070BD00F015FD064612E0681CDA
:1035200080B125B100F00EFD801BA8420AD9206CA5
:1035300040F00400206400BF002084F83C0000BF7D
:103540000320E7E72068006800F002000228E6D1C7
:103550006FF0120021680860206C40F40070206455
:103560002068806800F04050B8B9207EA8B9206873
:10357000C06A00F4700020B12068806800F48060A8
:1035800058B9206C20F480702064206C00F48050C6
:1035900018B9206C40F0010020640020BAE7000058
:1035A00008B501460020009000BF91F83C000128BA
:1035B00001D1022008BD012081F83C0000BF08684D
:1035C000806800F00100A0B90868806840F0010040
:1035D0000B6898603B4800683B4BB0FBF3F000EB96
:1035E0004000009002E00098401E009000980028E3
:1035F000F9D10868806800F0010000285FD0086CED
:1036000040F20163984340F48070086408684068A1
:1036100000F4806028B1086C20F4005040F4805021
:103620000864086C00F48050B0F5805F04D1486CE9
:1036300020F00600486401E00020486400BF00203C
:1036400081F83C0000BF214A6FF022000B6818602F
:10365000506800F01F0018BB1D4B0868984213D03B
:103660001C4B0868984204D1101D006800F01F0030
:1036700050B1194B0868984221D11448001D0068C8
:1036800000F01F0010281AD20868806800F040502F
:1036900028B90868806840F080400B6898600EE0A8
:1036A0000B4B086898420AD10868806800F04050C7
:1036B00028B90868806840F080400B689860002056
:1036C00078E700000000002040420F000023014086
:1036D0000020014000210140002201407047704756
:1036E000704770B503460024002500BF58790128B3
:1036F00001D1022070BD0120587100BF0220187155
:103700001868046840F6FE7090408443D1E90006D2
:1037100040EA060505FA02F00443186804601868D8
:103720000668C02090408643186806600120187122
:1037300000BF0020587100BF00BFDBE77047704733
:1037400010B504460CB9012010BD0220207120469E
:1037500000F01DF800202061207100BF607100BFE3
:1037600000BFF1E7704710B504460CB9012010BD49
:10377000207920B900206071204600F009F802206D
:10378000207100202061012020710020EFE77047A8
:1037900010B586B004461949206888422BD100BF75
:1037A000002000901648006840F00050144908605E
:1037B0000846006800F00050009000BF00BF00BF46
:1037C000002000900E481038006840F001000C49BD
:1037D000103908600846006800F00100009000BF42
:1037E00000BF10200190032002900020039001A947
:1037F000044800F0A1FA06B010BD000000740040BB
:1038000040380240000002402DE9F04704460D46D2
:1038100016469846089F4FF0000900BF60790128BE
:1038200002D10220BDE8F0870120607100BF0220B4
:10383000207115BB3648A168C8633648A168086482
:103840003548A168C8642068006840F48050216849
:10385000086027B1042F06D0082F0CD107E020689C
:1038600000F1080908E0206800F10C0904E0206874
:1038700000F1100900E000BF22E02848E168C863B9
:103880002748E16808642748E168C8642068006840
:1038900040F080502168086027B1042F06D0082F1F
:1038A0000CD107E0206800F1140908E0206800F15D
:1038B000180904E0206800F11C0900E000BF00BF07
:1038C00065B92068006840F40050216808604346EC
:1038D0004A463146A06800F0E9F80BE0206800682D
:1038E00040F000502168086043464A463146E0688F
:1038F00000F0DCF8206800680121A9400843216835
:10390000086000BF0020607100BF00BF8AE70000B0
:10391000412200089922000865220008532200086D
:10392000A72200087F220008014691F835000228EE
:1039300003D08020486501207047052081F83500BC
:103940000868006820F001000A6810600020F3E7B2
:1039500070B504460CB9012070BD94F835000228FA
:1039600000D1F9E72068006820F0010021680860B4
:10397000002021680860216848602168886021680B
:10398000C860216808612120216848612046FEF74F
:1039900099FD05460020E06320646064A064E06453
:1039A000206594F85C103F208840A8600020606586
:1039B00084F8350000BF84F8340000BF00BFCBE7B7
:1039C0002DE9F0410446002500F0BCFA074614B981
:1039D0000120BDE8F081606A00B100BF00BF002097
:1039E00084F8340000BF022084F8350020680068A5
:1039F00020F00100216808600AE000F0A3FAC01B73
:103A0000052805D920206065032084F83500E0E70B
:103A10002068006800F001000028EED120680568E9
:103A200021480540D4E901010843E16808432169C0
:103A3000084361690843A1690843E1690843216AB1
:103A400008430543606A042803D1D4E90B01084305
:103A50000543206805602068456925F00705606A10
:103A60000543606A04280DD1A06A0543E06A48B1A5
:103A70002046FEF741FD28B140206065012084F812
:103A80003500A6E7206845612046FEF71BFD064687
:103A900094F85C103F208840B060002060650120F1
:103AA00084F83500002094E73F8010F02DE9F047BE
:103AB00004460D4616461F464FF00008D4F85890AD
:103AC00000BF94F83400012802D10220BDE8F0873D
:103AD000012084F8340000BF94F8350001282BD170
:103AE000022084F83500002060653B4632462946B6
:103AF0002046FEF756FD94F85C103F208840C9F838
:103B000008002068006840F01600216808602068FE
:103B1000406940F0800021684861206C28B120682D
:103B2000006840F00800216808602068006840F0E4
:103B300001002168086006E000BF002084F834001E
:103B400000BF4FF002084046C0E70000F0B50C4649
:103B5000002500220023002192E0012606FA01F54B
:103B600004EA0502AA427DD1474E8F0856F8273055
:103B70008E07370F0F26BE403340444EB04201D16E
:103B8000002623E0424EB04201D101261EE0414E04
:103B9000B04201D1022619E03F4EB04201D10326C6
:103BA00014E03E4EB04201D104260FE03C4EB0423C
:103BB00001D105260AE03B4EB04201D1062605E0C0
:103BC000394EB04201D1072600E008268F073F0F8B
:103BD000BE409E4222D18E07370F0F2606FA07F30A
:103BE000294E8F0856F827609E43274F4FEA910CC5
:103BF00047F82C602D4E366896432C4F3E603E1D94
:103C0000366896433F1D3E603E1D366896433F1D15
:103C10003E603E1D366896433F1D3E6006684FEA93
:103C2000410C032707FA0CF7BE430660CF0800F1EA
:103C3000200656F827604F074FEAD76C0F2707FA80
:103C40000CF7BE434FEAD10C00F1200747F82C6077
:103C500086684FEA410C032707FA0CF7BE438660DB
:103C6000476800E00BE001268E40B7434760C66816
:103C70004FEA410C032707FA0CF7BE43C660491C04
:103C80001029FFF46AAFF0BD08380140000002407F
:103C90000004024000080240000C024000100240F4
:103CA0000014024000180240001C0240003C014089
:103CB00010B50446B4F5007F22D1124800F0C8FECA
:103CC000114890ED000AB8EE400A104880ED000A55
:103CD000D0ED000A9FED0E1AB3EE040A10EE810A31
:103CE00080ED000A90ED000ABCEEC00A10EE100A4A
:103CF00008490880054890ED000A074880ED000A51
:103D000010BD0000FC1F0020D8080020D0080020B3
:103D1000F628DC3FDC080020D408002010B504465B
:103D200004480068204020B1024804602046FFF7A4
:103D3000BFFF10BD143C0140F8B502460B460025FC
:103D4000002400200021DCE0012606FA01F51E68AF
:103D500006EA0504AC4273D15E68022E02D05E68AA
:103D6000122E13D1CF0802F1200656F827004E0775
:103D7000F70E0F26BE40B0434F07FF0E1E69BE4030
:103D80003043CF0802F1200646F8270010684F00A4
:103D90000326BE40B0431E7906F003064F00BE4026
:103DA000304310605E68012E08D05E68022E05D098
:103DB0005E68112E02D05E68122E13D190684F00FB
:103DC0000326BE40B0434F00DE68BE4030439060E3
:103DD000506801268E40B0431E79C6F300168E400F
:103DE00030435060D0684F000326BE40B0434F00C0
:103DF0009E68BE403043D0605E6806F08056B6F1E3
:103E0000805F7DD100BF00260096404E366846F4A4
:103E100080463E4F3E603E46366806F48046009639
:103E200000BF00BF3A4E8F0856F827008E07370FA5
:103E30000F26BE40B043374EB24202D1002624E0E6
:103E40005EE0354EB24201D101261EE0334EB24251
:103E500001D1022619E0324EB24201D1032614E00C
:103E6000304EB24201D104260FE02F4EB24201D1B2
:103E700005260AE02D4EB24201D1062605E02C4E61
:103E8000B24201D1072600E008268F073F0FBE404F
:103E900030431F4E8F0846F82700264E3068A04357
:103EA0005E6806F48036B6F5803F00D12043214E8F
:103EB0003060361D3068A0435E6806F40036B6F503
:103EC000003F00D120431B4E361D3060361D306848
:103ED000A0435E6806F48016B6F5801F00D120432B
:103EE000144E08363060361D3068A0435E6806F414
:103EF0000016B6F5001F00D120430E4E0C36306080
:103F0000491C1029FFF420AFF8BD000044380240DE
:103F1000083801400000024000040240000802404E
:103F2000000C024000100240001402400018024041
:103F3000001C0240003C014001480068000C704732
:103F4000002004E001480068704700008408002059
:103F5000034800680349097808440149086070472C
:103F6000840800208C08002010B50A48006840F43E
:103F70000070084908600846006840F480600860E6
:103F8000052000F07FF80F2000F006F800F02AF876
:103F9000002010BD003C024070B504460E48007879
:103FA0004FF47A71B1FBF0F00C490968B1FBF0F500
:103FB000284600F0EFFB08B1012070BD102C07D29D
:103FC00000222146501E00F01EF80548046001E062
:103FD0000120F2E70020F0E78C080020000000201C
:103FE00088080020704701460846002809DB00F0D9
:103FF0001F0301229A4043099B0003F1E023C3F809
:10400000002100BF70472DE9F05F80460D4616463F
:10401000002708F069F8074639462A46334601F07A
:104020000700C0F1070ABAF1040F02D94FF0040AE1
:1040300001E0C0F1070AD14600F1040ABAF1070F06
:1040400002D24FF0000A01E0A0F1030AD4464FF07B
:10405000010A0AFA09FAAAF1010A0AEA020A0AFAA4
:104060000CFA4FF0010B0BFA0CFBABF1010B0BEA56
:10407000030B4AEA0B042146404608F03DF8BDE830
:10408000F09F000000BF00F00702064B19684FF6D2
:10409000FF031940044B0B4343EA0221014B196013
:1040A00000BF70470CED00E00000FA0570B5044653
:1040B0000D460CB9012070BD5848006800F00F0093
:1040C000A84209D255490D700846006800F00F005B
:1040D000A84201D00120EEE7207800F0020002287B
:1040E0001DD1207800F00400042805D14C48006858
:1040F00040F4E0504A490860207800F008000828A1
:1041000005D14748006840F460404549086044488C
:10411000006820F0F000A168084341490860207859
:1041200000F00100A8B36068012807D13C480838B6
:104130000068C0F34040B8B90120BCE760680228BD
:1041400002D06068032807D1354808380068C0F3FA
:10415000406048B90120AEE7314808380068C0F334
:10416000400008B90120A6E72D48006820F00300B0
:10417000616808432A490860FFF7E4FE064609E043
:10418000FFF7E0FE801B41F28831884202D903200C
:1041900091E707E02248006800F00C006168B0EB8E
:1041A000810FEDD11D48006800F00F00A84209D929
:1041B0001A490D700846006800F00F00A84201D0AF
:1041C000012078E7207800F00400042807D1144883
:1041D000006820F4E050E168084311490860207845
:1041E00000F00800082808D10D48006820F460405D
:1041F000216940EAC1000A49086000F03DF8084919
:104200000968C1F30311074A515CC84006490860B8
:104210000F20FFF7C1FE00204DE70000003C0240E8
:1042200008380240F212010800000020014800682E
:10423000704700000000002000B5FFF7F7FF0449B9
:104240000968C1F38221034A515CC84000BD0000E7
:10425000083802400213010800B5FFF7E7FF0449E0
:104260000968C1F34231034A515CC84000BD0000F7
:1042700008380240021301082DE9F0470024002508
:104280000026A1462548006800F00C0020B1042853
:1042900005D008283AD105E0DFF8849039E0DFF84E
:1042A000809036E01D48001F006800F03F041B4866
:1042B000001F006800F4800078B119481749091FF1
:1042C0000968C1F38811A0FB017001462246002352
:1042D0003846FCF71AF805460EE011480F49091F49
:1042E0000968C1F38811A0FB017001462246002332
:1042F0003846FCF70AF805460848001F0068C0F376
:104300000140401C4600B5FBF6F902E0DFF81090D2
:1043100000BF00BF4846BDE8F087000008380240F3
:104320000024F400F8B504460CB90120F8BD20784B
:1043300000F00100002874D0F948006800F00C007B
:1043400004280DD0F648006800F00C00082813D1AE
:10435000F348001F006800F48000B0F5800F0BD117
:10436000EF4808380068C0F34040002859D0606822
:10437000002856D10120D9E700BF6068B0F5803F22
:1043800008D1E7480838006840F48030E44908392B
:1043900008601EE06068B0F5A02F0DD1E048083835
:1043A000006840F48020DE4908390860084600684B
:1043B00040F4803008600CE0D9480838006820F4E8
:1043C0008030D749083908600846006820F480200A
:1043D000086000BF606890B1FFF7B4FD054606E0D5
:1043E000FFF7B0FD401B642801D903209EE7CC48AD
:1043F00008380068C0F340400028F1D011E0FFF712
:10440000A1FD054606E0FFF79DFD401B642801D98C
:1044100003208BE7C24808380068C0F340400028FA
:10442000F1D1207800F0020002285FD1BC4800687A
:1044300000F00C0058B1BA48006800F00C000828E1
:104440001CD1B748001F006800F48000B0B9B44820
:1044500008380068C0F3400020B1E068012801D0AE
:10446000012063E7AE480838006820F0F8002169B1
:1044700040EAC100AA490839086037E0E06800B3A3
:104480000120A8490860FFF75DFD054606E0FFF73B
:1044900059FD401B022801D9032047E7A0480838EE
:1044A0000068C0F340000028F1D09D48083800683B
:1044B00020F0F800216940EAC100994908390860F4
:1044C00014E0002097490860FFF73CFD054606E030
:1044D000FFF738FD401B022801D9032026E790484A
:1044E00008380068C0F340000028F1D1207800F0BF
:1044F000080008282CD16069A8B101208A49086009
:10450000FFF720FD054606E0FFF71CFD401B0228D3
:1045100001D903200AE782486C300068C0F34000EC
:104520000028F1D014E000207F490860FFF70AFD61
:10453000054606E0FFF706FD401B022801D90320CF
:10454000F4E677486C300068C0F340000028F1D1F1
:10455000207800F00400042870D10026704838301C
:10456000006800F0805090B900BF002000906C48B7
:104570003830006840F0805069493831086008469A
:10458000006800F08050009000BF00BF012667481F
:10459000006800F48070B0B96448006840F480702E
:1045A00062490860FFF7CEFC054606E0FFF7CAFC4B
:1045B000401B022801D90320B8E65C48006800F4DB
:1045C00080700028F2D000BFA068012808D15448AC
:1045D0006830006840F001005149683108601DE012
:1045E000A06805280DD14E486830006840F00400EE
:1045F0004B49683108600846006840F001000860D7
:104600000CE047486830006820F0010044496831F8
:1046100008600846006820F00400086000BFA06839
:10462000A8B1FFF78FFC054609E0FFF78BFC401BA4
:1046300041F28831884202D9032077E626E03848E3
:1046400068300068C0F340000028EED013E0FFF7A8
:1046500079FC054608E0FFF775FC401B41F2883104
:10466000884201D9032061E62D4868300068C0F314
:1046700040000028EFD1012E07D1294838300068CA
:1046800020F0805026493831086000BFA069B8B3D7
:104690002348006800F00C0008285ED0A0690228BA
:1046A00046D100201F490866FFF74CFC054606E08E
:1046B000FFF748FC401B022801D9032036E61848C2
:1046C00008380068C0F340600028F1D1D4E9070140
:1046D0000843616A40EA81110122A06AC2EB5000DE
:1046E00041EA00412C20005D41EA00600C49091FAD
:1046F000086001200B490866FFF724FC054607E027
:104700002DE0FFF71FFC401B022801D903200DE616
:10471000034808380068C0F340600028F1D01EE06C
:104720000838024000004742800E474200700040B7
:1047300000200C490866FFF705FC054606E0FFF778
:1047400001FC401B022801D90320EFE50648006860
:10475000C0F340600028F2D101E00120E6E500202E
:10476000E4E500000000474200380240042808D178
:104770004FF0E021096941F004014FF0E02211619E
:1047800007E04FF0E021096921F004014FF0E02239
:104790001161704770B504462546681EB0F1807FF0
:1047A00001D301200FE0681E4FF0E02148610F2186
:1047B0004FF0FF3007F0A0FC00204FF0E0218861AF
:1047C00007200861002070BD7047704710B5024691
:1047D00000BF92F83C00012801D1022010BD012049
:1047E00082F83C0000BF022082F83D001068436858
:1047F0001068846823F070030868034324F0800481
:10480000486804431068436010688460012082F89F
:104810003D0000BF002082F83C0000BF00BFDDE784
:1048200010B50446022084F83D0000BF2068006AED
:1048300041F21111084050B92068006A89100840FF
:1048400028B92068006820F001002168086000BFD6
:10485000204600F022F8002084F83D0000BF84F8D4
:104860003C0000BF10BD10B504460CB9012010BDBE
:1048700094F83D0028B9002084F83C00204600F060
:104880000DF8022084F83D00211D206804F0D6F8C0
:10489000012084F83D000020E9E7704738B5044660
:1048A0002068B0F1804F0FD100BF002000904D482C
:1048B000006840F001004B4908600846006800F0BD
:1048C0000100009000BF00BF47492068884217D10F
:1048D00000BF002000904348006840F002004149BA
:1048E00008600846006800F00200009000BF00BFAA
:1048F000032201211D20FFF786FB1D20FFF773FB1C
:104900003A492068884217D100BF002000903548FE
:10491000006840F00400334908600846006800F071
:104920000400009000BF00BF022201211E20FFF7FB
:104930006AFB1E20FFF757FB2D492068884217D1DC
:1049400000BF002000902748006840F02000254963
:1049500008600846006800F02000009000BF00BF1B
:10496000012202213720FFF74EFB3720FFF73BFBE8
:1049700020492068884217D100BF002000901948C4
:10498000006840F00800174908600846006800F019
:104990000800009000BF00BF012211463220FFF73F
:1049A00032FB3220FFF71FFB13492068884217D1E2
:1049B00000BF002000900B48006840F0400009490B
:1049C00008600846006800F04000009000BF00BF8B
:1049D000032211462B20FFF716FB2B20FFF703FBCA
:1049E00038BD00004038024000040040000800408C
:1049F00000140040000C0040001800400146022056
:104A000081F83D000868806800F00702062A05D09A
:104A10000868006840F001000B681860012081F808
:104A20003D000020704701460868C06840F0010062
:104A30000B68D8600868806800F00702062A05D075
:104A40000868006840F001000B681860002070479B
:104A50000146022081F83D0000BF0868006A41F26B
:104A60001112104050B90868006A9210104028B91D
:104A70000868006820F001000A68106000BF01208B
:104A800081F83D000020704701460868C06820F0AA
:104A900001000A68D06000BF0868006A41F2111284
:104AA000104050B90868006A9210104028B9086890
:104AB000006820F001000A68106000BF0020704705
:104AC0002DE9F04104460D4600BF94F83C00012852
:104AD00002D10220BDE8F081012084F83C0000BF33
:104AE000022084F83D002068866826F0770626F4C8
:104AF0007F46206886602868502833D00CDC202848
:104B000050D004DC00284BD0102851D149E0302887
:104B100049D040284CD139E060282DD0702807D0EA
:104B2000B0F5805F03D0B0F5005F41D10DE040E00B
:104B3000D5E902136A68206803F0ECFF20688668F4
:104B400046F077062068866033E0D5E902136A688C
:104B5000206803F0DFFF2068806840F4804021680F
:104B6000886026E0EA686968206803F0E7FF502162
:104B7000206803F0DAFF1CE0EA686968206803F047
:104B8000F0FF6021206803F0D0FF12E0EA68696856
:104B9000206803F0D3FF4021206803F0C6FF08E03F
:104BA00000BF00BF00BF2968206803F0BEFF00E01F
:104BB00000BF00BF012084F83D0000BF002084F842
:104BC0003C0000BF00BF85E7704710B50446206871
:104BD0000069C0F34000D8B12068C068C0F340004D
:104BE000B0B16FF0020021680861012020772068D1
:104BF000806900F0030018B12046FFF7E5FF05E0EB
:104C0000204600F0ADF8204600F0ABF800202077F9
:104C100020680069C0F38000D8B12068C068C0F384
:104C20008000B0B16FF00400216808610220207795
:104C30002068806900F4407018B12046FFF7C4FF77
:104C400005E0204600F08CF8204600F08AF80020AD
:104C5000207720680069C0F3C000D8B12068C06820
:104C6000C0F3C000B0B16FF00800216808610420F3
:104C700020772068C06900F0030018B12046FFF7D4
:104C8000A3FF05E0204600F06BF8204600F069F82D
:104C90000020207720680069C0F30010D8B1206898
:104CA000C068C0F30010B0B16FF010002168086157
:104CB000082020772068C06900F4407018B12046B1
:104CC000FFF782FF05E0204600F04AF8204600F09A
:104CD00048F8002020772068006900F0010058B1F2
:104CE0002068C06800F0010030B16FF00100216859
:104CF0000861204600F036F820680069C0F3C01053
:104D000058B12068C068C0F3C01030B16FF08000A7
:104D1000216808612046FFF757FD20680069C0F34D
:104D2000801058B12068C068C0F3801030B16FF0B7
:104D3000400021680861204600F015F820680069ED
:104D4000C0F3401058B12068C068C0F3401030B1C3
:104D50006FF02000216808612046FFF736FD10BD86
:104D60007047704770477047704700002DE9F04763
:104D70000446206805682068C668206847694FF0C7
:104D80000008C14605F00F08B8F1000F0AD105F080
:104D9000200038B106F0200020B1204606F0B0FC1B
:104DA000BDE8F087B8F1000F6ED007F0010018B928
:104DB00006F49070002867D005F0010030B106F4C9
:104DC000807018B1E06B40F00100E06305F0040072
:104DD00030B107F0010018B1E06B40F00200E06371
:104DE00005F0020030B107F0010018B1E06B40F0AF
:104DF0000400E06305F0080030B107F0010018B1CD
:104E0000E06B40F00800E063E06B70B305F0200059
:104E100028B106F0200010B1204606F071FC206891
:104E20004069C0F38019E06B00F0080010B9B9F1D7
:104E3000000F23D0204606F043FC2068406900F0B4
:104E40004000402816D12068406920F040002168C9
:104E50004861606B50B11748616B0865606BFEF785
:104E600063FD10B1606B016D88470CE02046FFF7D1
:104E70007BFF08E02046FFF777FF04E02046FFF7BE
:104E800073FF0020E0638BE705F0800030B106F08F
:104E9000800018B1204606F03BFE81E705F0400097
:104EA00030B106F0400018B1204606F019FC77E753
:104EB00000BF75E7ADB6000810B504460CB9012077
:104EC00010BDA06900B100E000BF94F8390028B916
:104ED000002084F83800204600F028F8242084F8C8
:104EE00039002068C06820F400502168C86020465E
:104EF00006F05AFC2068006920F49040216808619F
:104F00002068406920F02A00216848612068C06854
:104F100040F400502168C8600020E063202084F83D
:104F2000390084F83A000020CAE7000010B586B0C6
:104F3000044645492068884240D100BF00200090C7
:104F40004248006840F00100404908600846006897
:104F500000F00100009000BF00BF00BF00200090E3
:104F60003A481430006840F01000384914310860A5
:104F70000846006800F01000009000BF00BF481510
:104F8000019002200290012003900220049007204B
:104F9000059001A92E48FEF7CFFE4FF480600190E6
:104FA0000220029001A92A48FEF7C6FE2520FFF73D
:104FB0001AF8022211462520FFF725F82549206816
:104FC00088423FD100BF002000902048006840F098
:104FD00001001E4908600846006800F001000090CA
:104FE00000BF00BF00BF00200090184810300068CC
:104FF00040F400301549103108600846006800F49C
:105000000030009000BF00BF0420019002200290F9
:1050100001200390022004900720059001A90C486C
:10502000FEF78AFE082001900220029001A908489C
:10503000FEF782FE2620FEF7D6FF00220221262060
:10504000FEF7E1FF06B010BD00100140303802400D
:10505000000002400044004010B5034693F83A00B7
:1050600020282FD101B10AB9012010BD00BF93F84B
:105070003800012801D10220F7E7012083F8380029
:1050800000BF99629A85DA850020D863222083F8D0
:105090003A0000BF002083F8380000BF1868C068DD
:1050A00040F480701C68E0601868406940F00100BE
:1050B0001C6860611868C06840F020001C68E060EF
:1050C0000020D2E70220D0E770472DE9F8430446DC
:1050D0000D4616461F464FF0000994F83900202867
:1050E0005CD105B116B90120BDE8F88300BF94F882
:1050F0003800012801D10220F6E7012084F83800A9
:1051000000BF0020E063212084F83900FEF71AFF79
:105110008146A684E6842BE0E08C401EE084A068F3
:10512000B0F5805F16D14B460022802120460097C3
:1051300006F022FD08B10320D6E7A846B8F8000023
:10514000C0F3080021684860206908B9AD1C0FE071
:105150006D1C0DE04B46002280212046009706F092
:105160000BFD08B10320BFE715F8010B216848606B
:10517000E08C0028D0D14B460022402120460097E9
:1051800006F0FAFC08B10320AEE7202084F83900CD
:1051900000BF002084F8380000BFA5E70220A3E785
:1051A0007047000000B587B000BF002001902E4876
:1051B000006840F004002C4908600846006800F0D0
:1051C0000400019000BF00BF00BF0020019008460E
:1051D000006840F0080008600846006800F0080019
:1051E000019000BF00BF881402900120039004903A
:1051F0000320059002A91D48FEF79EFD04200290A1
:105200000120039004900320059002A91848FEF79E
:1052100093FD012008F080FC00F00AF93C2000F02A
:10522000CDF8002000F0CAF8782000F0C7F800F0B0
:10523000FFF83C2000F0C2F8012000F0BFF80D4953
:105240000978C907080E00F0B9F800F0F1F83C2021
:1052500000F0B4F8022000F0B1F8002000F0AEF841
:1052600000F00CF907B000BD3038024000080240E1
:10527000000C02407409002010B5032003F03CF834
:105280000446042003F038F8204410BD10B5072070
:1052900003F032F80446082003F02EF8204410BD35
:1052A00010B5052003F028F80446062003F024F882
:1052B000204410BD10B50E48006820F030000C49A5
:1052C000086008460068086001200A4908600A2052
:1052D00008F02EFC0848D0F80802084908700020A1
:1052E00004490860012008F023FC0448007810BD40
:1052F000000C0240B0024142008041427809002087
:1053000070B500241348006820F03000114908608F
:1053100008460068086001200F490860002514E075
:105320006006040E01200D49086008F001FC0C48DD
:10533000D0F8080208B1601CC4B200200749086018
:10534000012008F0F5FB681CC5B2082DE8DB2046FB
:1053500070BD0000000C024088824142B002414210
:105360000080414210B504461048006820F030002B
:105370000E4908600846006840F010000860012CE3
:1053800003D101200A49086002E0002008490860B2
:1053900001200849086008F0CBFB00200649C1F84D
:1053A000B002012008F0C4FB10BD0000000C024058
:1053B00088824142B00241420000414270B5044639
:1053C0001748006820F0300015490860084600685A
:1053D00040F010000860002012490860002519E024
:1053E00004F0800018B101200F49086002E000209D
:1053F0000D490860012008F09BFB6006040E0120A7
:105400000849086008F094FB00200849C1F8B00280
:10541000681CC5B2082DE3DBFFF74CFF70BD000030
:10542000000C0240B00241428882414200004142E9
:1054300010B50F48006820F030000D49086008469C
:10544000006840F01000086001200A4908600A491D
:10545000C1F8B00208F060FB002006490860012096
:1054600008F05AFB00200449C1F8B00210BD00004A
:10547000000C0240888241420000414210B50120E8
:105480000749086000200749C1F88802012008F098
:1054900043FB01200449086008F03EFB10BD0000FA
:1054A000B0024142008041428882414200B587B04B
:1054B00000BF002001901D48006840F004001B4917
:1054C00008600846006800F00400019000BF00BFBB
:1054D00000BF002001900846006840F00800086006
:1054E0000846006800F00800019000BF00BF881463
:1054F00002900020039004900320059002A90C481C
:10550000FEF71AFC0420029001200390049003206F
:10551000059002A90748FEF70FFC012008F0FCFAED
:1055200000F00CF80449086007B000BD30380240B4
:1055300000080240000C0240FC08002070B5002664
:10554000002019490860002408E0012008F0E4FA6E
:10555000701CC6B2B6F5FA6F00DB03E013480068B2
:105560000028F2D100BF00250DE001200E4908609F
:10557000640000200E49C1F888020C48006800B1A0
:10558000641C681CC5B2182DEFDB012006490860B9
:1055900084F4000400200649C1F8880205488442CA
:1055A00000D96408204670BD8882414230024142E1
:1055B0000080414260D2FE0000BFFEE710B5FEF75A
:1055C000D3FC0723022210214FF4A87002F0BAFE88
:1055D000A82008F097FA00F0DBF800F019F8FCF7C3
:1055E00095FC01F05BF8FCF7B9FCFDF763F806F0F9
:1055F0008DFB10BD10B501F023FC01F0B6FA0220BE
:1056000008F08AFA01F0B7FA412000F0E5F810BD81
:1056100000B587B000BF002001902948006840F025
:105620000200274908600846006800F00200019067
:1056300000BF00BF00BF002001900846006840F096
:10564000100008600846006800F01000019000BFDC
:1056500000BF00BF002001900846006840F0010034
:1056600008600846006800F00100019000BF00BF1C
:105670000720029000200390012004900020059054
:1056800002A91048FEF758FB4FF4806002900020FA
:105690000390012004900020059002A90A48FEF71B
:1056A0004BFB012002900020039002200490002078
:1056B000059002A90548FEF73FFB07B000BD0000BA
:1056C0003038024000040240001002400000024056
:1056D00010B5044614B10120294908702848007803
:1056E000002833D02748006870B126480838006881
:1056F00050B12448001F006830B1234800680128D9
:1057000002D02248006808BB142008F005FA0020E7
:105710001B4908701B48006808B9012010BD1948D2
:105720000838006808B90220F8E71648001F00682A
:1057300008B90320F2E714480068012801D10420C9
:10574000ECE712480068C0B90520E7E70D4800689B
:10575000012812D10B480838006801280DD10948EA
:10576000001F0068012808D10748006828B90748C9
:105770000068012801D1024908700020CEE700002E
:10578000E1080020088240420002404228024242D2
:1057900000B587B000BF002001900D48006840F0C0
:1057A00010000B4908600846006800F010000190E6
:1057B00000BF00BF0F20029001200390049003203F
:1057C000059002A90348FEF7B7FA07B000BD000034
:1057D000303802400010024010B50446412C26D15A
:1057E00008210846FCF7FEFC3D21112006F03AFB9B
:1057F0008621172006F036FB7F21262006F032FB9B
:105800001E212D2006F02EFB00212C2006F02AFB65
:105810008D212A2006F026FB3E212B2006F022FBBC
:105820004FF47A7008F084F901F0A5F901E0012045
:1058300010BD0020FCE7000000B587B000BF0020CD
:1058400001901E48006840F004001C4908600846AA
:10585000006800F00400019000BF00BF00BF0020FE
:1058600001900846006840F008000860084600689B
:1058700000F00800019000BF00BF881402901120C2
:105880000390012004900320059002A90C48FEF724
:1058900053FA042002901120039001200490032069
:1058A000059002A90748FEF747FA0120064908605B
:1058B0000649C1F8880207B000BD00003038024038
:1058C00000080240000C0240B00241420080414208
:1058D0002DE9FC4104460D4616466B46062243213F
:1058E000682000F077F80746BFB99DF801009DF8E1
:1058F000001040EA012000B220809DF803009DF8CE
:10590000021040EA012000B228809DF805009DF8B1
:10591000041040EA012000B230803846BDE8FC8126
:1059200010B500F0C9FB80216B2000F0D7F864208F
:1059300008F0F2F800216B2000F0D0F8032000F00E
:105940008BF8002000F080F8322000F0AAF8002147
:10595000382000F0C3F800216A2000F0BFF80021D1
:10596000232000F0BBF88021372000F0B7F8752025
:1059700000F013F80446682C0BD101216B2000F0D5
:10598000ADF800216C2000F0A9F8322000F089F871
:1059900001E0012010BD0020FCE770B5044600F0D6
:1059A00069FCD02000F032FC00F0B0FC204600F092
:1059B0002DFC00F0ABFC00F05DFCD12000F026FCDB
:1059C00000F0A4FC002000F0EBFB054600F078FCA2
:1059D000284670BD2DE9F04106460F4614461D4687
:1059E00000F048FC002141EA4601C8B200F00EFC7C
:1059F00000F08CFC20B100F063FC0120BDE8F081D8
:105A0000384600F003FC00F081FC00F033FC01217B
:105A100001EB4601C8B200F0F9FB00F077FC0DE0A5
:105A2000012C04D1002000F0BBFB287003E0012012
:105A300000F0B6FB2870601EC4B26D1C002CEFD1C4
:105A400000F03EFC0020D9E710B50446E006010E48
:105A50001C2000F043F810BD10B50446E006010E0E
:105A60001B2000F03BF810BD70B504460025BC2C8F
:105A700001DB012510E0622C01DB02250CE02A2C61
:105A800001DB032508E0142C01DB042504E00A2CCB
:105A900001DB052500E0062529461A2000F01EF846
:105AA00070BD70B50446B4F57A7F01DD4FF47A74A9
:105AB000042C00DA04244FF47A7090FBF4F0401EBA
:105AC000C5B22946192000F009F80546264604EB20
:105AD000D671C1F34F00FFF7C7FF70BD70B5054623
